:100000000C945D000C9485000C9485000C94850084
:100010000C9485000C9485000C9485000C9485004C
:100020000C9485000C9485000C9485000C941B06A0
:100030000C9485000C9485000C9485000C9485002C
:100040000C9413140C9485000C947C0C0C94560C9A
:100050000C9485000C9485000C9485000C9485000C
:100060000C9485000C94850000000008000201003B
:100070000003040700000000000000000000000072
:10008000250028002B0000000000240027002A0083
:10009000040404040404040402020202020203032E
:1000A0000303030301020408102040800102040836
:1000B0001020010204081020851B11241FBECFEF61
:1000C000D8E0DEBFCDBF11E0A0E0B1E0EAE4F1E4AA
:1000D00002C005900D92AC3AB107D9F723E0ACEA23
:1000E000B1E001C01D92A439B207E1F710E0CDE5FF
:1000F000D0E004C02197FE010E946A1ECC35D107D2
:10010000C9F70E945D140C94A3200C940000209168
:10011000860390E0233311F40C9601C04896982F83
:10012000990F990F990F80E008950895CF93DF9369
:100130001F92CDB7DEB76983DC01ED91FC9102809F
:10014000F381E02D41E050E0BE016F5F7F4F0995E4
:100150000F90DF91CF910895FC01818D928D0895CC
:10016000FC01848595850895FC018489958908950D
:1001700022E731E0FC0131832083FB014089518972
:1001800062897389FC014283538364837583089574
:10019000DC01ED91FC91048CF58DE02D099480E05B
:1001A0000895089580E090E00895E091AD01F09108
:1001B000AE0190818091AC01892B80830895E091FC
:1001C000AD01F091AE0190818091AC0180958923C1
:1001D00080830895CF93DF931F92CDB7DEB741E0C0
:1001E00050E0BE016F5F7F4F80E090E00E94BE0C48
:1001F00089810F90DF91CF910895CF93DF931F9264
:10020000CDB7DEB7898341E050E0BE016F5F7F4F1D
:1002100080E090E00E944B0D0F90DF91CF91089508
:100220008EBD00000DB407FEFDCF8EB50895DA0136
:100230009091AF01E92FF0E0FE2FEE27E60FF71FB8
:1002400090E0982F8827A901BD018E0F9F1F0C9465
:100250004B0DCF93DF9300D0CDB7DEB779836A83A0
:1002600022E030E0AE014F5F5F4F64E070E00E943B
:1002700017010F900F90DF91CF910895DA019091BF
:10028000AF01E92FF0E0FE2FEE27E60FF71F90E019
:10029000982F8827A901BD018E0F9F1F0C94BE0CBB
:1002A000FF920F931F93CF93DF9300D0CDB7DEB7AC
:1002B000F82E22E030E0AE014F5F5F4F66E270E063
:1002C0000E943E0109811A8110270127102722E090
:1002D00030E0AE014F5F5F4F66E270E08F2D0E940D
:1002E0003E0189819A81982789279827081719073D
:1002F00011F08C01ECCFC8010F900F90DF91CF91DE
:100300001F910F91FF900895CF93DF931F92CDB768
:10031000DEB79091AF01292F30E0322F2227260F30
:10032000371F90E0982F8827498341E050E0BE01B5
:100330006F5F7F4F820F931F0E944B0D0F90DF91D5
:10034000CF910895CF93DF931F92CDB7DEB79091F1
:10035000AF01292F30E0322F2227260F371F90E0E0
:10036000982F882741E050E0BE016F5F7F4F820FDA
:10037000931F0E94BE0C89810F90DF91CF91089549
:1003800008958CBD9DBD08954F925F927F928F928C
:100390009F92AF92BF92CF92DF92EF92FF920F9314
:1003A0001F93CF93DF9300D0CDB7DEB7782E6B01CC
:1003B0004A01A82EB12C27E0829FC0011124AC0174
:1003C0004E595C4F7A01FA0100811181CE010196EC
:1003D0000E948B0E89819A810E94C101081519051E
:1003E00054F4872D0E945001F70126818C01021BD5
:1003F00011091183008301151105A9F463E070E070
:10040000872D0E94A201843109F480C0882309F459
:100410007DC001E010E08C3111F400E010E0119596
:100420000195110973C0801691060CF4840187E0D0
:100430008A9DF0018B9DF00D1124EE59FC4FE28056
:10044000F380C114D10459F12701F7E05F22872D11
:100450000E948700840D951D20918603273319F48F
:10046000A801B6011AC09801240D351D213038406D
:10047000B8F320E038E0490184189508A401B601DA
:100480000E94BE0C2601480C591C6801C818D908E6
:10049000872D0E948700A601B2010E94BE0CE00ECB
:1004A000F11E87E08A9DF0018B9DF00D1124EE591D
:1004B000FC4FF382E28280819181801B910B9183BA
:1004C00080832681A801420F511D4A3F510510F437
:1004D000892BD9F487E08A9DF0018B9DF00D1124C2
:1004E000EE59FC4F1682F982EA8222E030E0AE013A
:1004F0004F5F5F4F68E270E0872D0E94170160E454
:1005000070E0872D0E94AE0C01C04683C8010F9099
:100510000F90DF91CF911F910F91FF90EF90DF909F
:10052000CF90BF90AF909F908F907F905F904F90B3
:100530000895CF93DF93FC01218D328D2115310574
:1005400019F48FEF9FEF11C0EC014217530708F029
:10055000A901888D0E94C4011816190694F7298DE7
:100560003A8D281B390B3A8F298FDF91CF9108954F
:100570000F931F93CF93DF931F92CDB7DEB7FC018C
:10058000218D328D232B61F08C0141E050E0BE01C2
:100590006F5F7F4F808D0E94C401181619061CF0F2
:1005A0008FEF9FEF08C0F801818D928D0197928F98
:1005B000818F898190E00F90DF91CF911F910F91F2
:1005C00008951F93CF93DF9300D0CDB7DEB7182FD8
:1005D000CE0101960E948B0E89819A810E94C101F1
:1005E00060E170E0812F0E94AE0C0F900F90DF91C0
:1005F000CF911F910895CF92DF92EF92FF920F93C8
:100600001F93CF93DF9300D000D000D0CDB7DEB7DB
:100610008C016B017A01FC01808D843010F40E9402
:10062000E10282E791E09A838983F60182819381D6
:10063000A481B5818B839C83AD83BE83B701CE013A
:1006400001960E942B12F801808F843030F4F586D9
:10065000E486128E118E81E001C080E026960FB6EE
:10066000F894DEBF0FBECDBFDF91CF911F910F91E8
:10067000FF90EF90DF90CF900895CF93DF93FC0130
:10068000808D843028F4EF010E94E10284E0888F9D
:10069000DF91CF9108951F93CF93DF9300D0CDB713
:1006A000DEB7FC01108D143020F5818D928D892BE1
:1006B00001F1CE0101960E948B0E89819A810E94E0
:1006C000C101812F0E94870027E0129FF0011124B1
:1006D000EE59FC4F22813381377041E050E0BE017A
:1006E0006F5F7F4F820F931F0E94BE0C898190E045
:1006F00002C08FEF9FEF0F900F90DF91CF911F916E
:100700000895DF92EF92FF920F931F93CF93DF93A1
:10071000CDB7DEB728970FB6F894DEBF0FBECDBFBA
:100720008C01D80159964D915C915A97411551050C
:1007300051F0ED91FC91048CF58DE02D60E070E0BE
:10074000C8010995EECFF801D08CF7E0DF9EC0011B
:1007500011249C012E593C4F7901D9018D919C9116
:10076000892B49F148E050E0BE016F5F7F4FF801EF
:10077000808D0E94C40118161906A4F5D801509660
:1007800084E0FE01319601900D928A95E1F78D810A
:1007900090E0982F88272E81820F911DF801958B6C
:1007A000848B8F8190E0982F88272885820F911D58
:1007B000928F818F17C0CE0101960E948B0E898186
:1007C0009A810E94C1018D2D0E945001D701169679
:1007D0002C911697821B91098D939C93892B11F66E
:1007E00080E090E028960FB6F894DEBF0FBECDBF34
:1007F000DF91CF911F910F91FF90EF90DF900895BF
:100800002F923F925F926F927F928F929F92AF92C0
:10081000BF92CF92DF92EF92FF920F931F93CF93ED
:10082000DF9300D0CDB7DEB75C014B013A01FC018C
:1008300026883788508CCE0101960E948B0E8981C4
:100840009A810E94C10122E030E0AE014F5F5F4F0C
:1008500060E270E0852D0E943E01C980DA80DC24D0
:10086000CD24DC2422E030E0AE014F5F5F4F60E238
:1008700070E0852D0E943E0189819A819827892701
:100880009827C816D90611F06C01ECCF052D10E0A1
:1008900067E0569EF0011124EE59FC4FD582C482C8
:1008A0007301C614D70408F4760122E030E0AE01EB
:1008B0004F5F5F4F64E270E0852D0E943E016980CA
:1008C0007A80762467247624620C731C9301377037
:1008D00040918603C801433311F4089601C0409645
:1008E000982F8827990F990F990F820F931F4733DD
:1008F00019F4A701B40120C0A9014E0D5F1D4130BC
:100900005840B8F360E078E06B01C21AD30AA60140
:10091000B4010E944B0DA7014C195D09B4016C0D87
:100920007D1D80918603833399F5085F1F4F902FBB
:10093000990F990F990F80E00E944B0D6E0C7F1C50
:1009400079826A8222E030E0AE014F5F5F4F64E25D
:1009500070E0852D0E941701F501868997898E0D1B
:100960009F1D978B868BC7010F900F90DF91CF91C2
:100970001F910F91FF90EF90DF90CF90BF90AF90BD
:100980009F908F907F906F905F903F902F900895F1
:10099000005F1F4FCCCF1F93CF93DF9300D0CDB715
:1009A000DEB7FC01108DCE0101960E948B0E89816D
:1009B0009A810E94C10160E270E0812F0E94AE0C1A
:1009C00062E070E0812F0E94A20184FD18C062E005
:1009D00070E0812F0E94A20183FF08C048E162E01D
:1009E00070E0812F0E94840180E010C0CE0101964A
:1009F0000E948B0E89819A810E94C101E1CF40E162
:100A000062E070E0812F0E94840181E090E00F900D
:100A10000F90DF91CF911F910895DF92EF92FF9297
:100A20000F931F93CF93DF9300D0CDB7DEB7FB01B9
:100A3000DC0157961C921E9256972281211109C003
:100A40002381211106C02481211103C02581222385
:100A500039F14115510521F17A018F01FC01D08C4A
:100A6000CE0101960E948B0E89819A810E94C1015C
:100A7000A8014E5F5F4F24E030E06CE070E08D2D08
:100A80000E941701F982EA8222E030E0AE014F5F56
:100A90005F4F60E170E08D2D0E94170181E001C081
:100AA00080E090E00F900F90DF91CF911F910F9118
:100AB000FF90EF90DF9008958F929F92AF92BF9238
:100AC000CF92DF92EF92FF921F93CF93DF9300D0EC
:100AD00000D000D0CDB7DEB76C015B01FC01808D8A
:100AE000843010F40E94E10280918603882309F487
:100AF00084C0CE0101960E948B0E89819A810E944A
:100B0000C1019E012F5F3F4F7901490110E063E071
:100B100070E0812F0E94A201F40181934F0188238C
:100B2000B9F01F5F143099F710E0F70181917F0150
:100B30008D3149F0883139F08A51823020F01F5FC1
:100B4000143099F75AC060E170E0812F0E94AE0C1A
:100B5000E12EF12C83EE93E00197F1F742E060E0A3
:100B600070E0812F0E9484014FEF62E070E0812FDE
:100B70000E948401A114B10411F0B50113C0809149
:100B800008019091090101968115F0EC9F0710F47E
:100B900080E090EC90930901809308016091080136
:100BA00070910901812F0E94290161E070E0812F7D
:100BB0000E94AE0C27E02E9DC0012F9D900D1124A8
:100BC0009C012E593C4F7901F9011182108222E0DB
:100BD00030E0AE014B5F5F4F68E270E0812F0E9412
:100BE0003E018D819E81982789279827F70193835D
:100BF000828316821582148201C014E0F601108FE0
:100C0000143030F4B586A486128E118E81E001C0B6
:100C100080E026960FB6F894DEBF0FBECDBFDF9101
:100C2000CF911F91FF90EF90DF90CF90BF90AF904A
:100C30009F908F9008951F920F920FB60F921124DC
:100C40002F933F934F935F936F937F938F939F93D4
:100C5000AF93BF93EF93FF9380913E0287FF05C050
:100C600010928500109284001BC020913E02022E3B
:100C7000000C330B80910C0390E02817390784F4A3
:100C800080913E02082E000C990BFC01EE0FFF1F15
:100C90008E0F9F1FFC01E851FD4F808186FD15C01E
:100CA00080913E028F5F80933E0220913E02022E91
:100CB000000C330B80910C0390E028173907C4F423
:100CC00080913E028C3064F113C080913E02082E68
:100CD000000C990BFC01EE0FFF1F8E0F9F1FFC01F4
:100CE000E851FD4F808160E08F730E945B13D8CF85
:100CF0008091840090918500049680349C4918F47A
:100D000080E49CE905C08091840090918500049660
:100D100090938900809388008FEF80933E023BC0C0
:100D2000209184003091850080913E02082E000CB5
:100D3000990BFC01EE0FFF1F8E0F9F1FFC01E85166
:100D4000FD4F81819281820F931F90938900809340
:100D5000880080913E02082E000C990BFC01EE0FDA
:100D6000FF1F8E0F9F1FFC01E851FD4F808186FF02
:100D700012C080913E02082E000C990BFC01EE0F70
:100D8000FF1F8E0F9F1FFC01E851FD4F808161E026
:100D90008F730E945B13FF91EF91BF91AF919F9171
:100DA0008F917F916F915F914F913F912F910F9014
:100DB0000FBE0F901F901895FC011382128288EECF
:100DC00093E0A0E0B0E084839583A683B78388E1B5
:100DD00091E09183808382E791E097878687108AEC
:100DE000118A128A138A84E0808F08956F927F920D
:100DF0008F929F92AF92BF92CF92DF92EF92FF922B
:100E00000F931F93CF93DF93CDB7DEB7EC970FB659
:100E1000F894DEBF0FBECDBF4C017B013A0102E763
:100E200011E01A8309831B821C821D821E82CE015F
:100E300009960E94DC0619AB08AB1AAA1BAA1CAAC9
:100E40001DAA8091E4029091E502A091E602B09182
:100E5000E7028EA39FA3A8A7B9A78B839C83AD832A
:100E6000BE8318861F82F70120E080E090E06AE0F0
:100E70003191332319F140ED430F4A3080F4689FDC
:100E8000A001699F500D1124CA01C097830F911DC5
:100E900037FD9A958F3F910559F350F32BC03E32A1
:100EA00049F5233039F1A2E3B0E0AC0FBD1FA20F2A
:100EB000B11D8C932F5F80E090E0DACF2330D1F426
:100EC0008DABD401ED91FC910488F589E02D82E78A
:100ED00091E09DA38CA38AA99BA9ACA9BDA98EA3CF
:100EE0009FA3A8A7B9A7A301BE016C5D7F4FC40152
:100EF000099500C24B815C816D817E818091DE020B
:100F00009091DF02A091E002B091E10248175907E9
:100F10006A077B0709F4ECC10E9407146F707727FA
:100F20007C5FCE0109960E945C05813009F0DDC12D
:100F300082E791E09DA38CA38B819C81AD81BE81D2
:100F40008EA39FA3A8A7B9A745E350E0BE016C5D9F
:100F50007F4FCE0109960E940D05892B19F400E000
:100F600010E06CC10E94071478876F8342E050E064
:100F7000BE01695F7F4FCE0109960E94000481E0A7
:100F800090E09DA38CA342E050E0BE016C5D7F4FDA
:100F9000CE0109960E94000480E091E09DA38CA3FD
:100FA00042E050E0BE016C5D7F4FCE0109960E9489
:100FB00000041DA21CA242E050E0BE016C5D7F4F08
:100FC000CE0109960E94000442E050E0BE016C5D33
:100FD0007F4FCE0109960E94000442E050E0BE011E
:100FE0006C5D7F4FCE0109960E9400046701D70116
:100FF0008C91882311F186017801F70181915F01BD
:10100000882321F08E3211F08501F6CF0C191D09CD
:101010001016110684F40EAB41E050E0BE016A5C8C
:101020007F4FCE0109960E940004A801B601CE01AF
:1010300009960E9400046501DACF1EAA41E050E043
:10104000BE016A5C7F4FCE0109960E94000400E059
:1010500011E01DA30CA342E050E0BE016C5D7F4F88
:10106000CE0109960E9400041DA30CA342E050E0AB
:10107000BE016C5D7F4FCE0109960E940004CE0137
:1010800009960E94CB04892B09F469CF83E0E82EEE
:10109000F12C0E9407145B016C01CE0109960E949D
:1010A000810318161906A4F00E940714DC01CB0175
:1010B0008A199B09AC09BD0989389341A105B1057D
:1010C000C8F462E370E080E090E00E94CD13E5CFC9
:1010D0004B815C816D817E81898D9A8DAB8DBC8DBC
:1010E000481759076A077B0741F48D8D9E8DC59778
:1010F00021F406C00FEF1FEF98C00EEF1FEF95C051
:101100008AA19BA10C970CF4EDC04CE050E0BE010D
:101110006C5D7F4FCE0109960E9499028EA19FA11E
:101120009827892798279BAF8AAF4F8158852CA194
:101130003DA14217530709F0CCC097FFCAC08F707A
:101140009270892B09F0C8C0AAA4BBA4BA24AB240E
:10115000BA24A114B10409F4C2C000E010E088A5CB
:1011600099A59827892798270817190708F470C0A8
:10117000C12CD12C41E050E0BE01645C7F4FCE0118
:1011800009960E9499024CAD842F807C09F081C0A1
:10119000442339F050E060E070E0CE0109960E94EF
:1011A00099028CAD8111E6CF42E050E0BE01685C4F
:1011B0007F4FCE0109960E94990242E050E0BE01A5
:1011C0006A5C7F4FCE0109960E94990244E050E08C
:1011D00060E070E0CE0109960E94990242E050E082
:1011E000BE01665C7F4FCE0109960E94990288ADD0
:1011F00099AD4AAD5BAD8115914009F054C00EA97F
:101200001FA91027012710270130110509F04BC035
:101210004115544009F05AC044E050E0BE016E5CF4
:101220007F4FCE0109960E949902F1E0EF1AF10872
:1012300029F00F3FFFEF1F0709F42BCFCE010996CE
:101240000E943D030130110509F43BCEC80152C094
:1012500041E050E0BE016A5C7F4FCE0109960E94DA
:1012600099024EA9442339F050E060E070E0CE01CD
:1012700009960E9499028EA98111EACF44E050E0BC
:1012800060E070E0CE0109960E9499020F5F1F4F47
:1012900066CF41E050E060E070E0CE0109960E9428
:1012A00099021CAE7ECF54274527542760E070E09A
:1012B000CE0109960E949902EFEFCE1ADE0AAC1415
:1012C000BD0409F057CF06EF1FEFAFCF07EF1FEFB9
:1012D000ACCF0CEF1FEFA9CF0BEF1FEFA6CF0AEF9C
:1012E0001FEFA3CF0DEF1FEFA0CF80E090E002C073
:1012F0008EEF9FEFEC960FB6F894DEBF0FBECDBF1A
:10130000DF91CF911F910F91FF90EF90DF90CF90E1
:10131000BF90AF909F908F907F906F9008956115D0
:10132000710579F0FB0101900020E9F73197AF01D9
:10133000461B570BDC01ED91FC910280F381E02DFF
:10134000099480E090E00895CF92DF92EF92FF92AF
:101350000F931F93CF93DF936C017A018B01C0E051
:10136000D0E0CE15DF0581F0D8016D918D01D60159
:10137000ED91FC910190F081E02DC6010995892B3A
:1013800011F02196EECF7E01C701DF91CF911F9121
:101390000F91FF90EF90DF90CF900895FC01538D57
:1013A000448D252F30E0842F90E0821B930B54173F
:1013B00010F0CF96089501970895FC01918D828DCC
:1013C000981761F0828DDF01A80FB11D5D968C9199
:1013D000928D9F5F9F73928F90E008958FEF9FEFA4
:1013E0000895FC01918D828D981731F0828DE80F60
:1013F000F11D858D90E008958FEF9FEF0895FC011A
:10140000918D228D892F90E0805C9F4F821B9109E6
:101410008F73992708958FE392E00E94FF0921E0DE
:10142000892B09F420E0822F0895FC01848DDF01CF
:10143000A80FB11DA35ABF4F2C91848D90E0019647
:101440008F739927848FA689B7892C93A089B18936
:101450008C91837080648C93938D848D981306C0D7
:101460000288F389E02D80818F7D80830895EF923B
:10147000FF920F931F93CF93DF93EC0181E0888F4E
:101480009B8D8C8D981305C0E889F989808185FD35
:1014900026C0F62E0B8D10E00F5F1F4F0F73112724
:1014A000E02E8C8DE8120CC00FB607FCFACFE8894D
:1014B000F989808185FFF5CFCE010E94150AF1CF11
:1014C0008B8DFE01E80FF11DE35AFF4FF0829FB7AD
:1014D000F8940B8FEA89FB89808180620AC09FB7EC
:1014E000F894EE89FF896083E889F98980818370A7
:1014F000806480839FBF81E090E0DF91CF911F9156
:101500000F91FF90EF900895CF93DF93EC01888DBA
:101510008823C9F0EA89FB89808185FD05C0A889F7
:10152000B9898C9186FD0FC00FB607FCF5CF80817D
:1015300085FFF2CFA889B9898C9185FFEDCFCE01C7
:101540000E94150AE7CFDF91CF91089580E090E0E7
:10155000892B29F00E940B0A81110C940000089538
:10156000FC0120812EBD9B012150310941F05181A8
:101570000DB407FEFDCF4EB55EBD4193F5CF615072
:101580007109FC01E60FF71F0DB407FEFDCF8EB504
:10159000808308950E9457200F931F93CF93DF936A
:1015A000EC0188819981009729F02A813B812617D7
:1015B000370788F48B016F5F7F4F0E94911F009760
:1015C00061F0998388831B830A832C813D81232BBF
:1015D00011F4FC01108281E001C080E0DF91CF9125
:1015E0001F910F9108958F929F92AF92BF92CF92C9
:1015F000DF92EF92FF920F931F93CF93DF937C01C3
:10160000EB016C0182E0C80ED11C4701E5E08E0EB3
:10161000911C00E010E0F60141916F0150E060E0A4
:1016200070E02AE0CE010E9412135C01E881F9818A
:101630000190F081E02D6EE2CE0109958A0D9B1D8F
:10164000080F191F8C149D0431F7F701458150E0F4
:1016500060E070E02AE0CE010E941213800F911F1B
:10166000DF91CF911F910F91FF90EF90DF90CF907E
:10167000BF90AF909F908F900895EF92FF920F933D
:101680001F93CF93DF936115710511F480E01CC0A7
:1016900041155105C1F07B01EC018C819D818A01CE
:1016A000080F191FB801CE010E94CC0A882371F3DC
:1016B000288139818C819D81B701820F931F0E94FF
:1016C00082201D830C8381E0DF91CF911F910F91C8
:1016D000FF90EF900895CF93DF93EC01888199817B
:1016E000009711F00E94081F198218821D821C8227
:1016F0001B821A82DF91CF910895CF93DF93EC0183
:10170000FB0144815581608171810E943D0B8111F3
:1017100003C0CE010E946B0BCE01DF91CF910895E3
:10172000EF92FF920F931F93CF93DF93EC017B0116
:101730008A01BA010E94CC0A811104C0CE010E9424
:101740006B0B07C01D830C83B701888199810E94B0
:101750008220CE01DF91CF911F910F91FF90EF90EA
:101760000895CF93DF93EC016115710559F0FB01EA
:1017700001900020E9F73197AF01461B570B0E94FB
:10178000900B02C00E946B0BCE01DF91CF910895A8
:10179000CF93DF93EC01FB018617970761F060811F
:1017A00071816115710529F0448155810E94900B6A
:1017B00002C00E946B0BCE01DF91CF910895FC0116
:1017C00080819181009711F00C94081F0895FC010D
:1017D0001182108213821282158214820C94C80B1B
:1017E000FC0111821082138212821582148261150B
:1017F000710551F0FB0101900020E9F73197AF012D
:10180000461B570B0C94900B0895BF92CF92DF921A
:10181000EF92FF920F931F93CF93DF937C016B01A5
:101820008A01E9012417350720F4812F8901C42F8B
:10183000D82F62E871E0C7010E94F00BD601149620
:101840008D919C91159708171907C8F48C179D075F
:1018500008F4EC01D601ED91FC911197EC0FFD1FFE
:10186000B08010826D917C91600F711FC7010E9442
:10187000B10BD601ED91FC91EC0FFD1FB082C701B9
:10188000DF91CF911F910F91FF90EF90DF90CF905C
:10189000BF900895DC0182E791E08D939D9384E0F1
:1018A000FB0101900D928A95E1F708951F920F9226
:1018B0000FB60F9211242F933F934F935F936F9323
:1018C0007F938F939F93AF93BF93EF93FF938FE398
:1018D00092E00E94150AFF91EF91BF91AF919F9105
:1018E0008F917F916F915F914F913F912F910F90C9
:1018F0000FBE0F901F9018951F920F920FB60F9268
:1019000011242F938F939F93EF93FF93E0914F02B6
:10191000F09150028081E0915502F091560282FDD3
:1019200012C09081809158028F5F8F73209159026D
:10193000821751F0E0915802F0E0E15CFD4F958F85
:101940008093580201C08081FF91EF919F918F9108
:101950002F910F900FBE0F901F901895CF93C82F07
:10196000462F61E070E00E94840161E070E08C2FFE
:101970000E94A2018111F9CFCF910895AF92BF9239
:10198000CF92DF92EF92FF920F931F93CF93DF934B
:1019900000D000D0CDB7DEB78C016B017A01809109
:1019A00086038333F1F45B016801C40ED51E0C1568
:1019B0001D0509F460C00E94DF008FE00E94100145
:1019C000812F0E941001802F0E9410010F5F1F4F76
:1019D00080E00E941001F50181935F010E94D50013
:1019E000E6CF8433F1F40E94DF0019830A838F2D40
:1019F0008F778B83EC8264E070E0CE0101960E94C9
:101A0000B00AA70160E070E0C6010E947220E114F4
:101A1000F10421F0B701C6010E94B00A0E94D5006E
:101A20002AC00E94DF000F3F110509F020F419823F
:101A30000A831B821DC017FD0BC019820A8333E085
:101A4000169507953A95E1F7007E08600B8310C064
:101A5000C80126E0969587952A95E1F719830A83B0
:101A6000807E0115104C10F4806101C088618B8369
:101A700063E070E0C2CFC7010F900F900F900F90FE
:101A8000DF91CF911F910F91FF90EF90DF90CF905A
:101A9000BF90AF900895AF92BF92CF92DF92EF9236
:101AA000FF920F931F93CF93DF93CDB7DEB72897A5
:101AB0000FB6F894DEBF0FBECDBF8C017B016A016B
:101AC000809186038333E1F45801A40EB51E0A15F4
:101AD0001B0509F48BC00E94DF0080EF0E941001FB
:101AE000812F0E941001802F0E9410010F5F1F4F55
:101AF000F70181917F010E9410010E94D500E7CF7C
:101B0000843321F50E94DF0019830A838D2D8068BC
:101B10008B83CC8264E070E0CE0101960E94B00A13
:101B200087010C0D1D1DE016F10669F0F70181918A
:101B30007F010E941001F7CFB6016D5F7F4FCE018C
:101B400001960E94B00A0E94D50050C00E94DF009A
:101B50000F3F110509F020F419820A8384E01CC0AC
:101B600017FD0BC019820A8333E0169507953A9545
:101B7000E1F7007E0C600B8310C0C80126E096954B
:101B800087952A95E1F719830A83807E0115104C09
:101B900010F4846101C08C618B8326E0C216D104ED
:101BA00098F420E0822F90E08C159D0528F6E4E063
:101BB000F0E0EC0FFD1FE80FF91FD701A80FB91FC8
:101BC0008C9180832F5FEECF63E070E0CE010196B1
:101BD0000E94B00A87010C0D1D1DF70181917F0144
:101BE0000E941001E016F106C1F7ADCFC60128969C
:101BF0000FB6F894DEBF0FBECDBFDF91CF911F911E
:101C00000F91FF90EF90DF90CF90BF90AF9008952D
:101C1000CF93DF9380E80E94FD00C4E1D0E00E94F2
:101C2000EA00882351F061E070E080E090E00E94DB
:101C3000CD132197A1F780E001C081E0DF91CF9122
:101C40000895EF92FF920F931F93CF93DF93CDB739
:101C5000DEB762970FB6F894DEBF0FBECDBF8C0122
:101C6000DB011496ED90FC90159720E030E080E0C9
:101C700090E02E153F0589F0DB01ED91FC91309746
:101C800029F410923103E1E3F3E002C0E20FF31F05
:101C9000408184272F5F3F4FECCFF80111821082E3
:101CA000138212821582148240E1BE016F5F7F4F62
:101CB0000E943B1DBE016F5F7F4FC8010E94B10BA8
:101CC000C80162960FB6F894DEBF0FBECDBFDF919C
:101CD000CF911F910F91FF90EF900895CF93DF93D5
:101CE000FC01248135814217530780F4FB01DC019C
:101CF000CD91DC9160817181CE01840F951F0E948E
:101D00008920009719F08C1B9D0B02C08FEF9FEF6D
:101D1000DF91CF91089520E5FC01208321E021830C
:101D2000089520E3FC0120833296862F82958F70E0
:101D300090E1899F601911246A3014F4605D01C03C
:101D4000695C6293682F8111F0CF08952F923F92C2
:101D50004F925F926F927F928F929F92AF92BF92BB
:101D6000CF92DF92EF92FF920F931F93CF93DF9367
:101D7000CDB7DEB7E9970FB6F894DEBF0FBECDBF83
:101D80007C014A015B0119010E9407142B013C01EF
:101D900087010D5B1F4FC8010E94810318161906A9
:101DA000A4F00E940714DC01CB0184199509A6094F
:101DB000B70988169906AA06BB06D8F062E370E058
:101DC00080E090E00E94CD13E6CF42E250E0BE01F9
:101DD0006F5F7F4FC8010E9499028981823011F0A4
:101DE00080E035C1F8018489958983349105C1F774
:101DF00002C08FEF2CC16D817E818F8198850E94FA
:101E00005C1E2B013C01F10160837183828393830B
:101E100046E050E0B701685F7F4FCE014D960E94CB
:101E20005C20892BE9F6F70180819181A281B38141
:101E3000481659066A067B0698F284819581A68128
:101E4000B78184159505A605B70550F289899A8949
:101E5000AB89BC8986879787A08BB18B4EEC50E00D
:101E600060E070E0C8010E9499021FA66701F2E2DB
:101E7000CF0ED11CC701869699AB88ABF701BA96F5
:101E8000FBABEAAB4701FAE18F0E911C8D969DAB3F
:101E90008CABF7017296FFABEEABCD9799AF88AFE5
:101EA00017019EE1290E311CF801818D928D1816C3
:101EB00019060CF0CBC0C8010E94B802833391050B
:101EC00009F4A5C0ACF48130910569F11CF4892BAB
:101ED00059F3B6C08330910571F1069709F0B0C08F
:101EE000C8010E94B8025C0144E050E0B1012BC07F
:101EF0008A33910509F45FC034F48533910559F0B4
:101F0000C69771F19DC08B33910509F46AC08F3F6C
:101F1000910551F295C0C8010E94B802C8010E9403
:101F2000B8028FA7C1CFC8010E94B80244E050E0B8
:101F30006EA97FA911C0C8010E94B8025C0144E0EB
:101F400050E068AD79ADC8010E949902A5015527FE
:101F50004450510960E070E0C8010E949902A4CF8A
:101F6000C8010E94B8025C01B401CE0183960E94B0
:101F70004A0C8DA19EA1AFA1B8A5892B8A2B8B2BD2
:101F8000A1F0ECA9FDA94080518062807380B4016A
:101F9000CE0189960E944A0C8BA59CA5ADA5BEA535
:101FA00084159505A605B70521F444E050E0B40179
:101FB000D3CFA50149C0C8010E94B80244E050E057
:101FC00068A979A9C8010E949902F70166A177A1C1
:101FD00080A591A50E945C1E66A377A380A791A708
:101FE00063CFC8010E94B80244E050E06AA97BA90F
:101FF000C8010E949902F70162A573A584A595A561
:102000000E945C1E62A773A784A795A74DCFC80145
:102010000E94B80244E050E0B601C8010E94990253
:10202000F70162A173A184A195A10E945C1E62A325
:1020300073A384A395A366A777A780AB91AB34CF96
:10204000C8010E94B802AC01552784CF8FA5E9963C
:102050000FB6F894DEBF0FBECDBFDF91CF911F91B9
:102060000F91FF90EF90DF90CF90BF90AF909F9037
:102070008F907F906F905F904F903F902F9008953A
:102080007F928F929F92AF92BF92CF92DF92EF9208
:10209000FF920F931F93CF93DF93CDB7DEB7A69731
:1020A0000FB6F894DEBF0FBECDBF8C01762E942EF6
:1020B000852E20E2B22ECE0101967C01FC012B2D53
:1020C00011922A95E9F782E791E09AA389A38FEF0D
:1020D0008BA38CA38DA38EA3680183E4C80ED11CAF
:1020E00043E450E0BE016F5D7F4FC6010E940D05C5
:1020F000019609F4B9C081E089838A8386E0A82E1D
:10210000AB821C82F80164817581868197810E946F
:102110005C1E6D837E838F83988789869A8680E88C
:1021200090E09C878B874CE150E0B701C6010E948C
:102130000004F7012B2D11922A95E9F7480188E058
:10214000880E911CF401D70101900D92AA94E1F739
:1021500040E150E0B701C6010E940004F70111926E
:10216000BA94E9F796E0A92EB12C40E250E0B7010D
:10217000C6010E940004F1E0AF1AB108B1F783E68E
:10218000898392E89A8393E59B838C8385E38D838F
:1021900081E08E837F829DE3988797E099878A8785
:1021A00086E0F401DE011B9601900D928A95E1F71D
:1021B0008CE0898B8A8B64EA71E0CE0143960E94A1
:1021C0008220F8016385CE0149960E94910EF801A4
:1021D0006485CE014B960E94910EF8016585CE0173
:1021E0004D960E94910E4EE150E0B701C6010E944B
:1021F0000004F3E07F121EC082E3898384E08A83B7
:10220000F80196859B8397859C8390899D8391890E
:102210009E8396E39F838887828D8987838D8A87B3
:10222000848D8B87858D8C874CE050E0B701C6018B
:102230000E94000487E3898386E08A8391E09B8380
:1022400093E09C838D838FE08E838AE38F838BE37F
:1022500088878FEF898749E050E0B701C6010E9467
:102260000004C6010E94CB04A6960FB6F894DEBF08
:102270000FBECDBFDF91CF911F910F91FF90EF90D7
:10228000DF90CF90BF90AF909F908F907F900895F8
:1022900090E0FC01EC55FF4F2491FC01E057FF4F0B
:1022A0008491882399F090E0880F991FFC01EA57E8
:1022B000FF4FA591B491FC01E458FF4F8591949193
:1022C0008FB7F894EC91E22BEC938FBF0895CF92E7
:1022D000DF92EF92FF92DC01A03282E0B8070CF0AF
:1022E0003EC0B7FD06C0A53BB1052CF0A4EBB0E0A5
:1022F00002C0A0E0B0E080910E0328E830E0690160
:10230000C81AD10887FDD394CC0CDD1CCC0CDD1C85
:102310000D2C000CEE08FF0880910F0328E532E039
:10232000281B310987FD3395220F331F220F331FDE
:10233000A901330F660B770B9A01AB012C193D09EC
:102340004E095F090E94E01D24EB30E040E050E0C0
:102350000E94B61DC20ED31EE41EF51ED60190913A
:102360000D039C3098F580910E0348E850E0481B1F
:10237000510987FD5395440F551F440F551FA4174E
:10238000B5078CF080910F0328E532E0281B310956
:1023900087FD3395220F331F220F331FAD012A17FC
:1023A0003B070CF4A90142505109440F551F2FB7A8
:1023B000F894892F90E0FC01EE0FFF1F8E0F9F1FF6
:1023C000FC01E851FD4F528341832FBFFF90EF90F6
:1023D000DF90CF900895CF93DF93BC018FE392E01D
:1023E0000E948F09EC0160E871E08FE392E00E94A7
:1023F0008F098C0F9D1FDF91CF9108950F931F932D
:10240000CF93DF93CDB7DEB7A2970FB6F894DEBFB8
:102410000FBECDBF8C01CB01BA01F8011182108231
:1024200013821282158214822AE0AE014F5F5F4F41
:102430000E94461DBE016F5F7F4FC8010E94B10B15
:10244000A2960FB6F894DEBF0FBECDBFDF91CF913D
:102450001F910F9108958F929F92AF92BF92CF924A
:10246000DF92EF92FF921F93CF93DF93CDB7DEB74A
:102470002C970FB6F894DEBF0FBECDBF2091860318
:10248000222309F4BCC06B017C01CE0101960E949D
:102490008B0E89819A810E94C1015E0127E0A20E04
:1024A000B11C450110E063E070E0812F0E94A201A1
:1024B000F40181934F018823C9F01F5F143099F70D
:1024C00010E0F50181915F018D3159F0883149F0BB
:1024D0008A51823030F01F5F143099F70E94C0019A
:1024E0008EC060E170E0812F0E94AE0CA12EB12C55
:1024F00083EE93E00197F1F742E860E070E0812F0E
:102500000E9484014FEF62E070E0812F0E948401FD
:10251000C114D10411F0B60113C08091080190914B
:10252000090101968115F0EC9F0710F480E090EC12
:10253000909309018093080160910801709109014D
:10254000812F0E94290186E0EAE7F1E0DE01119681
:1025500001900D928A95E1F7F70183818F778C8343
:1025600084818D8385818E83A7014E5F5F4F24E038
:1025700030E06CE070E0812F0E941701DB86CC8692
:1025800022E030E0AE01455F5F4F60E170E0812FF7
:102590000E94170126E030E0AE014F5F5F4F66E01A
:1025A00070E0812F0E94170161E070E0812F0E948E
:1025B000AE0C27E02A9DC0012B9D900D11249C019B
:1025C0002E593C4F7901F9011182108222E030E04E
:1025D000AE01455F5F4F68E270E0812F0E943E01CF
:1025E0008B859C85982789279827F7019383828379
:1025F0001682158214820E94C001812F01C084E0DE
:102600002C960FB6F894DEBF0FBECDBFDF91CF91F1
:102610001F91FF90EF90DF90CF90BF90AF909F9071
:102620008F9008958F929F92AF92BF92EF92FF92F8
:102630000F931F93CF93DF93CDB7DEB7A1970FB65C
:10264000F894DEBF0FBECDBF7C01FA01CB0119A209
:10265000223008F42AE08E010F5D1F4F822E912C4C
:10266000A12CB12CBF01A50194010E941F1EF901EC
:10267000CA01015011096A3014F4605D01C0695C3F
:10268000D8016C93232B242B252B61F7B801C701AC
:102690000E948F09A1960FB6F894DEBF0FBECDBF82
:1026A000DF91CF911F910F91FF90EF90BF90AF906E
:1026B0009F908F90089590E0FC01E859FF4F24917E
:1026C000FC01EC55FF4F3491FC01E057FF4FE491C2
:1026D000EE2309F43CC0222339F1233091F038F481
:1026E0002130A9F0223001F584B58F7D12C027304A
:1026F00091F02830A1F02430B9F4809180008F7DD2
:1027000003C0809180008F77809380000DC084B5D6
:102710008F7784BD09C08091B0008F7703C080910E
:10272000B0008F7D8093B000F0E0EE0FFF1FE45803
:10273000FF4FA591B4919FB7F894611104C08C919B
:102740003095382302C0EC913E2B3C939FBF0895F7
:102750003FB7F89480918C0390918D03A0918E03E4
:10276000B0918F0326B5A89B05C02F3F19F00196A5
:10277000A11DB11D3FBFBA2FA92F982F8827820F07
:10278000911DA11DB11DBC01CD0142E0660F771F57
:10279000881F991F4A95D1F708958F929F92AF9203
:1027A000BF92CF92DF92EF92FF926B017C010E9469
:1027B000A8134B015C01C114D104E104F104F1F050
:1027C0000E94A813DC01CB0188199909AA09BB0949
:1027D000883E9340A105B10570F321E0C21AD108EB
:1027E000E108F10888EE880E83E0981EA11CB11C58
:1027F000C114D104E104F10419F7DDCFFF90EF908B
:10280000DF90CF90BF90AF909F908F9008952FB79B
:10281000F894609188037091890380918A03909164
:102820008B032FBF08951F920F920FB60F921124A2
:102830002F933F938F939F93AF93BF938091880380
:1028400090918903A0918A03B0918B033091870303
:1028500023E0230F2D3720F40196A11DB11D05C0E3
:1028600026E8230F0296A11DB11D209387038093B4
:10287000880390938903A0938A03B0938B0380917C
:102880008C0390918D03A0918E03B0918F030196DC
:10289000A11DB11D80938C0390938D03A0938E0393
:1028A000B0938F03BF91AF919F918F913F912F91E3
:1028B0000F900FBE0F901F901895CF93DF93CDB759
:1028C000DEB7E0970FB6F894DEBF0FBECDBF7894A9
:1028D00084B5826084BD84B5816084BD85B5826025
:1028E00085BD85B5816085BD80916E0081608093D6
:1028F0006E0010928100809181008260809381003F
:10290000809181008160809381008091800081604E
:10291000809380008091B10084608093B1008091A9
:10292000B00081608093B00080917A0084608093D1
:102930007A0080917A00826080937A0080917A0098
:10294000816080937A0080917A00806880937A0019
:102950001092C100E0914F02F091500282E080831A
:10296000E0914B02F0914C021082E0914D02F09107
:102970004E028FEC808310925702E0915302F09147
:10298000540286E08083E0915102F09152028081EE
:1029900080618083E0915102F091520280818860D1
:1029A0008083E0915102F09152028081806880839F
:1029B000E0915102F091520280818F7D808380915D
:1029C0000D038C3008F050C089E00E9448118091BE
:1029D0000D03E82FF0E09F01220F331FE20FF31FDA
:1029E000E851FD4F9081907C9960908310920E0386
:1029F00010920F036CE00E94501E9CE0899FB00172
:102A0000112440E050E09B01240F351FF901EE0F27
:102A1000FF1F2E0F3F1FF901E851FD4F908196FDDA
:102A200016C04F5F5F4F4C30510569F781110FC0E1
:102A30001092800082E080938100109285001092B5
:102A40008400B19A80916F00826080936F00E09162
:102A50000D03F0E0CF01880F991FE80FF91FE8512F
:102A6000FD4F8081806480838091060190910701F1
:102A70000E94671180911202811107C087EF91E0D7
:102A80000E94DC0681E08093120284EB91E0909337
:102A9000B3018093B2018091B10181110EC160E355
:102AA00072E080E090E00E94CD131FB7F89480910F
:102AB000B001811124C0EAE9F0E08491EEEAF0E08F
:102AC0009491E82FF0E0EE0FFF1FEA57FF4FA5911A
:102AD000B491EC91E92321F461E08AE00E945B1358
:102AE0008AE00E9448118CB580618CBD8CB58064F1
:102AF0008CBD8DE00E9448118BE00E9448118091AE
:102B0000B0018F5F8093B0011FBFEAE9F0E0E4916C
:102B1000F0E0EE0FFF1FE458FF4F859194919093E2
:102B2000AE018093AD01EEEAF0E0E491E093AC01F8
:102B30008AE00E9448110E94D500CE0101960E94B1
:102B40008B0E89819A810E94C10184E38093860360
:102B50000E94080E882309F188E00E94FD000E946F
:102B6000EA008830D1F480E10E94FD000E94EA0072
:102B7000803199F480E00E94FD000E94EA008111FA
:102B80000CC041E050E0BE016F5F7F4F8FE190E0ED
:102B90000E94BE0C8981833099F187E3809386037C
:102BA0000E94080E882309F44EC088E00E94FD00B0
:102BB0000E94EA00883009F046C080E10E94FD00D2
:102BC0000E94EA00182F8031F1F580E00E94FD009C
:102BD0000E94EA00811137C041E050E0BE016F5F02
:102BE0007F4F89E390E00E94BE0C8981843059F5C3
:102BF0001093AF010E94C00181E08093B1015DC0DC
:102C000080E48093AF0110E042E06EE170E0812F3C
:102C10000E94840142E06FE170E0812F0E948401F4
:102C20001F5F143089F740E06EE170E0812F0E9451
:102C3000840140E06FE170E0812F0E9484011F5FFA
:102C4000183089F7D7CF83E3809386030E94080E5C
:102C5000882339F080E10E94FD000E94EA00803163
:102C600029F0109286030E94C0013AC182E10E94BD
:102C7000FD000E94EA008231A1F780E00E94FD0081
:102C80000E94EA008111EDCF84E08093AF0115E549
:102C90001EA741E050E0BE01625D7F4F8BE190E0F6
:102CA0000E944B0D1DA741E050E0BE01635D7F4FC8
:102CB0008AE190E00E944B0D9DCFCE0101960E94CB
:102CC0008B0E89819A810E94C10146E050E060E04C
:102CD00071E089E090E00E944B0D82E791E09A83D9
:102CE00089831B821C821D821E8244E050E0BE014B
:102CF0006D5F7F4F8FE090E00E944B0D0E94C001FE
:102D00000091B2011091B301F80112A213A214A212
:102D100015A216A217A210A611A612A613A614A6F3
:102D200015A680E69AEEA0E0B0E086AB97ABA0AF28
:102D3000B1AF80EA9FE0A0E0B0E082AF93AFA4AF74
:102D4000B5AF3E9684E1DF011D928A95E9F786E0F2
:102D5000E0E0F1E0D801189601900D928A95E1F734
:102D6000F801EE5BFF4FF8ABEFA710820E94BD1C8D
:102D70002FEC37E040E050E00E94B61DDC01CB01B3
:102D80000196A11DB11DF80184839583A683B783A5
:102D900080839183A283B3835801F3E4AF0EB11C07
:102DA000C5010E943D0364E470E0C5010E945C051A
:102DB000882309F495C00E9407142B013C01812C43
:102DC000912C58EEC52E53E0D52EE12CF12C62E06B
:102DD000262EAFA5B8A98C91833009F08DC3C5010B
:102DE0000E943D03F80184819581A681B7810196F7
:102DF000A11DB11D84839583A683B7830E94071408
:102E0000F801FE9660837183828393838A94892874
:102E100009F066C0CE0101960E948B0E89819A81CD
:102E20000E94C1016091B2017091B301625F7F4F56
:102E3000CE0101960E944A0C44E050E0BE016D5F55
:102E40007F4F8FE090E00E944B0D6091B201709136
:102E5000B3016A5E7F4FCE0101960E944A0C44E0A6
:102E600050E0BE016D5F7F4F81E090E00E944B0D0E
:102E70006091B2017091B3016E5E7F4FCE010196F9
:102E80000E944A0C44E050E0BE016D5F7F4F85E038
:102E900090E00E944B0D0E94C0016091B2017091C0
:102EA000B301625E7F4FCE0101960E944A0C8B8176
:102EB0009C81AD81BE818093E4029093E502A09352
:102EC000E602B093E7020E94A8137F738091080185
:102ED000909109016827792770930901609308018F
:102EE00068EB72E280E193E00E945C0582E791E08A
:102EF0009A8389831B821C821D821E82CE010D96BD
:102F00000E948B0E8D859E850E94C10144E050E099
:102F1000BE016D5F7F4F8FE090E00E94BE0C0E946B
:102F2000C0016FE372E0CE0101960E94F30A60E8EF
:102F300071E08FE392E00E948F0982E0282E312C0D
:102F400094EB892E912CA12CB12C80913602811109
:102F50000DC00E9407146093320270933302809375
:102F600034029093350281E080933602C0903202A1
:102F7000D0903302E0903402F090350288EEC80E13
:102F800083E0D81EE11CF11C0E940714C616D70668
:102F9000E806F90608F051C10E9407146093320256
:102FA00070933302809334029093350263E871E0AA
:102FB000CE0101960E94F00B62E871E0CE010D9601
:102FC0000E94F00BBE016F5F7F4FCE010D960E94F5
:102FD000C80B3C8A2B8ACE0101960E94DF0B80E44D
:102FE00080937C0080917A00806480937A00809145
:102FF0007A0086FDFCCF809178002091790090E0E6
:10300000922BAC01092E000C660B770B9A01AB01D9
:10301000873E9105ACF0255E310941095109A1EACD
:10302000BFEF0E94E31D26EA32E040E050E00E943C
:10303000B61DDA01C9018C599F4FAF4FBF4F2BC04E
:10304000C397ACF02253310941095109A7EDBFEFF5
:103050000E94E31D23EB30E040E050E00E94B61DEB
:10306000DA01C90180579F4FAF4FBF4F14C02A509C
:10307000310941095109A1EEBFEF0E94E31D28E289
:1030800030E040E050E00E94B61DDA01C9018155F0
:103090009F4FAF4FBF4FDC0128EE33E00E94631E0D
:1030A000A50194010E94B61DBA01A901CE010196A5
:1030B0000E94FE11A0910601B091070128EE33E0B5
:1030C0000E94631EA50194010E94B61DBA01A901C8
:1030D000CE0107960E94FE1182E791E09E8B8D8BB8
:1030E00080912D0390912E03A0912F03B091300376
:1030F0008F8B988FA98FBA8F48EB52E2BE016B5E1F
:103100007F4F80E193E00E940D05BE01635F7F4F1A
:10311000CE0187960E94E70B8E010F5F1F4FE12CB7
:10312000F12C8B899C89E816F9065CF5B801CE0173
:103130004B960E94E70B69E871E0CE0145960E942C
:10314000F00BBE01655E7F4FCE0145960E947D0B60
:10315000DC0114964D915C9115976D917C91CE0197
:1031600087960E943D0BCE0145960E94DF0BCE0153
:103170004B960E94DF0BBFEFEB1AFB0A0A5F1F4F53
:10318000D0CFBE01695D7F4FCE014B960E94E70B09
:10319000BE01655E7F4FCE0181960E94210E6BE8D5
:1031A00071E0CE0145960E94F00BBE01695D7F4F34
:1031B000CE0145960E947D0B8C0141E050E06DE808
:1031C00071E00E943D0B882309F49BC2BE016F5D34
:1031D0007F4FC8010E947D0BBC01CE0187960E94E3
:1031E000C80BCE0145960E94DF0BCE0181960E944E
:1031F000DF0BCE014B960E94DF0B6FA178A580E11B
:1032000093E00E948F09CE0187960E94DF0B80E138
:1032100093E00E94CB04892B21F48FE891E00E9477
:10322000EB11CE0107960E94DF0BCE0101960E94A2
:10323000DF0BCE010D960E94DF0B80E193E00E9430
:103240008103892B09F455C148E150E06AE172E03D
:1032500080E193E00E94C8008AE192E00E94EB11B5
:103260006AE172E0CE0101960E94F00BBE016F5F31
:103270007F4FCE0181960E94E70BCE0101960E94FE
:10328000DF0B0DA11EA16DE871E0CE0101960E9439
:10329000F00B40E050E0BE016F5F7F4FCE018196A2
:1032A0000E946E0EAC014F5F5F4F9801BE016F5DD3
:1032B0007F4FCE014B960E94050CCE0101960E94D5
:1032C000DF0B6DE871E0CE0101960E94F00B40E04B
:1032D00050E0BE016F5F7F4FCE0181960E946E0E5F
:1032E0009C0141E050E0BE016F5D7F4FCE014596ED
:1032F0000E94050CCE0101960E94DF0B8B8D9C8DE8
:10330000009729F00E94141D6B017C0103C0C12CA1
:10331000D12C7601BE016B5E7F4FCE0101960E94DB
:10332000E70BBE016F5F7F4FCE010D960E94210E0D
:103330008D859E85009729F00E94141D2B013C016C
:1033400003C0412C512C3201CE010D960E94DF0B9F
:10335000CE0101960E94DF0BCE0145960E94DF0B45
:10336000CE014B960E94DF0B4C145D046E047F046B
:1033700009F0B7C06DE871E0CE0101960E94F00B34
:1033800040E050E0BE016F5F7F4FCE0181960E940A
:103390006E0E9C0141E050E0BE016F5D7F4FCE019B
:1033A0000D960E94050CCE0101960E94DF0B25E0D0
:1033B00030E040E050E0BE01635F7F4FCE010196F8
:1033C0000E94050CCE010D960E94DF0B8D819E811F
:1033D000892B49F06EE971E089819A810E947920F8
:1033E00011E0892B09F010E0CE0101960E94DF0B5D
:1033F000112309F47AC06DE871E0CE0101960E94B4
:10340000F00B40E050E0BE016F5F7F4FCE01819630
:103410000E946E0E9C0146E050E0BE016F5D7F4F42
:10342000CE010D960E94050CCE0101960E94DF0B85
:1034300069E871E0CE0101960E94F00B40E050E097
:10344000BE016F5F7F4FCE010D960E946E0E8C0104
:10345000CE0101960E94DF0B0F5F1F4F69E871E0FC
:10346000CE0101960E94F00BA801BE016F5F7F4F55
:10347000CE010D960E946E0E7C01CE0101960E9437
:10348000DF0B9701A801BE01635F7F4FCE0101965C
:103490000E94050CCE010D960E94DF0B89819A8156
:1034A000009729F00E94141D6B017C0103C0C12C00
:1034B000D12C7601CE0101960E94DF0BD60124EBC0
:1034C00030E00E94631E28EE33E040E050E00E94AE
:1034D000B61D3093070120930601C9010E946711B0
:1034E00004C08AE192E00E94EB11CE0181960E9415
:1034F000DF0B0E94A60A29CD811120C0F80184812A
:103500009581A681B7810196A11DB11D8483958304
:10351000A683B7830E940714641975098609970961
:10352000A70196010E941F1EA90161E0C8010E9427
:10353000401081E0AFA5B8A98C93CAC08430F9F4DB
:10354000F80184819581A681B7810196A11DB11DE5
:1035500084839583A683B7830E9407146419750931
:1035600086099709A70196010E941F1EA90163E021
:10357000C8010E944010AFA5B8A92C92A9C0813003
:1035800059F5F80142AD53AD64AD75AD9E012F5FA5
:103590003F4FC8010E94A60E382EF2E08F1392C052
:1035A00089819A81AB81BC81F80184839583A6834C
:1035B000B7830E9407146419750986099709A70142
:1035C00096010E941F1EA90163E0C8010E944010DD
:1035D000AFA5B8A93C927CC0823009F079C0F8014F
:1035E00042AD53AD64AD75AD9E012F5F3F4FC80135
:1035F0000E94A60E382EF5E08F135DC0E3E0AFA564
:10360000B8A9EC93F80182A193A1A4A1B5A1892B3B
:103610008A2B8B2B41F484E893E0A0E0B0E082A3F6
:1036200093A3A4A3B5A3F80186A197A1A0A5B1A5D2
:10363000892B8A2B8B2B61F482A193A1A4A1B5A124
:10364000B695A7959795879586A397A3A0A7B1A7A9
:10365000F80182A593A5A4A5B5A5892B8A2B8B2B50
:10366000A9F482A193A1A4A1B5A1AC01BD0133E04D
:1036700076956795579547953A95D1F7841B950BA5
:10368000A60BB70B82A793A7A4A7B5A7F80186A19D
:1036900097A1A0A5B1A586A797A7A0ABB1AB82A51E
:1036A00093A5A4A5B5A582AB93ABA4ABB5AB882479
:1036B0008394912C0DC0F6E08F1304C0AFA5B8A978
:1036C0001C9206C0BFEF3B1203C0EFA5F8A9108201
:1036D000F1E08F16910409F47CCB0E940714DC0101
:1036E000CB0184199509A609B709F80126A937A9BC
:1036F00040AD51AD281739074A075B0708F069CB81
:103700006ECBC8010E946B0B61CDCF931092420229
:103710001092410288EE93E0A0E0B0E08093430273
:1037200090934402A0934502B093460280E691E054
:103730009093400280933F0285EC90E090934C027E
:1037400080934B0284EC90E090934E0280934D0264
:1037500080EC90E09093500280934F0281EC90E0D7
:10376000909352028093510282EC90E09093540225
:103770008093530286EC90E090935602809355021A
:10378000109258021092590210925A0210925B0243
:1037900082E791E0909333038093320310923403D5
:1037A0001092350310923603109237039093390329
:1037B0008093380310923A0310923B0310923C031B
:1037C00010923D039093DD028093DC021092DE02A2
:1037D0001092DF021092E0021092E10290933F03F8
:1037E00080933E03109240031092410310924203D3
:1037F0001092430390934503809344031092460331
:1038000010924703109248031092490390934B0380
:1038100080934A0310924C0310924D0310924E0372
:1038200010924F03909351038093500310925203D0
:103830001092530310925403109255039093570320
:1038400080935603109258031092590310925A0312
:1038500010925B039093E3028093E2021092E402E1
:103860001092E5021092E6021092E70290935D0337
:1038700080935C0310925E0310925F0310926003CA
:103880001092610390932C0380932B0380EC809320
:103890002D0388EA80932E0384E680932F03CFEFD5
:1038A000C093300380E193E00E94DC0680910C031A
:1038B0008C30A0F491E0980F90930C0380930D034B
:1038C00090E0FC01EE0FFF1F8E0F9F1FFC01E851DF
:1038D000FD4F88EB9BE09283818302C0C0930D0370
:1038E000CF9108958F929F92AF92BF92CF92DF9225
:1038F000EF92FF92CF93DF93EC01688179818A8107
:103900009B81611571058105910521F464E279EDD2
:103910008BE597E02DE133EF41E050E00E94B61DCA
:1039200049015A019B01AC01A7EAB1E40E94D51DEF
:103930006B017C01ACEEB4EFA50194010E94E31D84
:10394000DC01CB018C0D9D1DAE1DBF1DB7FF03C05B
:103950000197A109B04888839983AA83BB83BC01DE
:10396000CD019F77DF91CF91FF90EF90DF90CF90C7
:10397000BF90AF909F908F9008958F929F92AF923B
:10398000BF92CF92DF92EF92FF9260910A01709105
:103990000B0180910C0190910D016115710581055C
:1039A000910521F464E279ED8BE597E02DE133EFA9
:1039B00041E050E00E94B61D49015A019B01AC0153
:1039C000A7EAB1E40E94D51D6B017C01ACEEB4EF17
:1039D000A50194010E94E31DDC01CB018C0D9D1D0E
:1039E000AE1DBF1DB7FF03C00197A109B04880936A
:1039F0000A0190930B01A0930C01B0930D01BC013F
:103A0000CD019F77FF90EF90DF90CF90BF90AF9068
:103A10009F908F90089560930A0170930B0180939B
:103A20000C0190930D0108951F93FC01992788279D
:103A3000BC01E89411911032E9F3193010F01E30F6
:103A4000C8F31B3251F01D3249F4689406C00E943D
:103A5000551D610F711D811D911D119110531A305B
:103A6000B0F33EF490958095709561957F4F8F4FA0
:103A70009F4F1F910895BB274A3031F4992322F4B8
:103A8000BDE2909581959F4F0C948D1DBB272A30E8
:103A900051F4992342F4BDE290958095709561951B
:103AA0007F4F8F4F9F4F0C946B1D592F482F372FEF
:103AB000262F660F771F881F991F660F771F881F95
:103AC000991F620F731F841F951F660F771F881F32
:103AD000991F0895BB27FA01A62F6217710581056A
:103AE0009105330B30FB66F0AA27660F771F881FFE
:103AF000991FAA1FA21710F0A21B63953850A9F7AF
:103B0000A05DAA3308F0A95DA19336F7B111B19376
:103B10001082CA010C94A61DBB27FB015527AA27BA
:103B2000880F991FAA1FA41710F0A41B839550514A
:103B3000B9F7A05DAA3308F0A95DA193009779F7C2
:103B4000B111B1931192CB010C94A61DDC01FC01C3
:103B5000672F71917723E1F7329704C07C916D93C1
:103B600070836291AE17BF07C8F30895052E97FBC7
:103B70001EF400940E94CD1D57FD07D00E941F1E09
:103B800007FC03D04EF40C94CD1D50954095309514
:103B900021953F4F4F4F5F4F0895909580957095B9
:103BA00061957F4F8F4F9F4F08950E94411EA59FA3
:103BB000900DB49F900DA49F800D911D1124089528
:103BC000B7FF0C94D51D0E94D51D821B930B089541
:103BD0002F923F924F925F926F927F928F929F921D
:103BE000AF92BF92CF92DF92EF92FF920F931F930B
:103BF000CF93DF93CDB7DEB7CA1BDB0B0FB6F894BC
:103C0000DEBF0FBECDBF09942A88398848885F84FB
:103C10006E847D848C849B84AA84B984C884DF806C
:103C2000EE80FD800C811B81AA81B981CE0FD11D50
:103C30000FB6F894DEBF0FBECDBFED010895A1E22F
:103C40001A2EAA1BBB1BFD010DC0AA1FBB1FEE1F16
:103C5000FF1FA217B307E407F50720F0A21BB30B61
:103C6000E40BF50B661F771F881F991F1A9469F7DD
:103C700060957095809590959B01AC01BD01CF0139
:103C80000895A29FB001B39FC001A39F700D811D35
:103C90001124911DB29F700D811D1124911D089555
:103CA000991B79E004C0991F961708F0961B881F8E
:103CB0007A95C9F780950895692796276927782707
:103CC0008727782708950E94411EB7FF0895821B19
:103CD000930B0895EE0FFF1F0590F491E02D0994CA
:103CE0000F931F93CF93DF938230910510F482E0FE
:103CF00090E0E0919203F091930320E030E0A0E0A7
:103D0000B0E0309719F14081518102811381481749
:103D10005907C8F08417950769F4109731F0129687
:103D20000C93129713961C9327C000939203109341
:103D3000930322C02115310519F04217530718F4D7
:103D40009A01BD01EF01DF01F801DBCF211531053B
:103D5000F9F0281B390B2430310580F48A819B81CE
:103D60006115710521F0FB019383828304C0909358
:103D7000930380939203FE01329644C0FE01E20F4A
:103D8000F31F8193919322503109398328833AC0DC
:103D90002091900330919103232B41F42091100145
:103DA00030911101309391032093900320910E01E3
:103DB00030910F012115310541F42DB73EB74091E7
:103DC000120150911301241B350BE0919003F091E7
:103DD0009103E217F307A0F42E1B3F0B28173907B6
:103DE00078F0AC014E5F5F4F2417350748F04E0F57
:103DF0005F1F50939103409390038193919302C06E
:103E0000E0E0F0E0CF01DF91CF911F910F91089595
:103E1000CF93DF93009709F481C0FC01329713829E
:103E20001282A0919203B0919303109781F42081A4
:103E30003181820F931F20919003309191032817B5
:103E4000390751F5F0939103E093900367C0ED01BA
:103E500020E030E0CE17DF0740F44A815B819E010D
:103E600041155105F1F0EA01F5CFD383C2834081BA
:103E70005181840F951FC817D90759F488819981FA
:103E8000840F951F0296918380838A819B819383FF
:103E900082832115310529F4F0939303E093920373
:103EA0003DC0E901FB83EA8349915991C40FD51FB5
:103EB000EC17FD0761F480819181840F951F0296B4
:103EC000E90199838883828193819B838A83E0E0DF
:103ED000F0E012968D919C911397009719F0FD01D7
:103EE000DC01F7CF8D919C9111979D012E5F3F4F83
:103EF000820F931F20919003309191032817390767
:103F000069F4309729F4109293031092920302C03F
:103F100013821282B0939103A0939003DF91CF910B
:103F20000895A0E0B0E0E7E9FFE10C94EC1DEC019E
:103F3000009721F4CB010E94701EB4C0FC01E60F73
:103F4000F71F9C0122503109E217F30708F4A8C0BB
:103F5000D9010D911C91119706171707B0F0053084
:103F6000110508F49BC0C80104978617970708F449
:103F700095C002501109061B170B019311936D9305
:103F80007C93CF010E94081F89C05B01A01AB10A6F
:103F90004C01800E911EA0919203B0919303612C6D
:103FA000712CE12CF12C109709F446C08D919C9155
:103FB0001197A815B905B1F56C0142E0C40ED11CEA
:103FC000CA14DB0478F14C018A189B08640142E0B2
:103FD000C40ED11C1296BC9012971396AC91B5E00A
:103FE000CB16D10440F0B282A38391828082D901A2
:103FF0006D937C9309C00E5F1F4F800F911FF901D5
:1040000091838083EB2DFA2FE114F10431F0D70175
:104010001396FC93EE93129741C0F0939303E093B1
:1040200092033CC06816790608F43C017D011296A3
:104030000D90BC91A02DB7CF8091900390919103EA
:1040400088169906E1F466167706C8F480910E0189
:1040500090910F01009741F48DB79EB740911201E6
:1040600050911301841B950BE817F907C8F4F093DE
:104070009103E0939003F901718360830FC0CB013A
:104080000E94701E7C01009759F0A801BE010E9499
:104090006920CE010E94081FC70104C0CE0102C0E2
:1040A00080E090E0CDB7DEB7EEE00C94081E81E032
:1040B00090E0F8940C94A320FB01DC0104C08D91E6
:1040C0000190801921F441505040C8F7881B990B8A
:1040D0000895FB01DC0102C001900D924150504057
:1040E000D8F70895DC0101C06D9341505040E0F7CE
:1040F0000895FB01DC018D91019080190110D9F325
:10410000990B0895FB01DC0101900D920020E1F76D
:104110000895FB0151915523A9F0BF01DC014D9198
:1041200045174111E1F759F4CD010190002049F004
:104130004D9140154111C9F3FB014111EFCF81E0D1
:0A41400090E001970895F894FFCF76
:10414A00DEADBEEFFEEE460000C00100000000003A
:10415A00940320000000000096000004D20095009D
:10416A00AC00B8024B035C05FB023D030D05F606E5
:10417A00CB0481039902C800B800B400B000000063
:10418A000000CA0AA409D200D100CA0ACA0ACA0A85
:10419A0000000000CA0AA409D200D10000000000F1
:1041AA00370AA409CE09840AFF09DD09F1090000CA
:1041BA000000F30A00000000CA0A01005E000000C5
:1041CA000D0A005252414141002C0021002A0046AA
:1041DA0061696C656420746F2073656E6400425374
:0C41EA005252410057495A6E65740000A3
:00000001FF
